:020000040800F2
:100000000050002049140008711300087313000801
:10001000751300087713000879130008000000002A
:100020000000000000000000000000007B1300083A
:100030007D130008000000007F13000881130008F2
:1000400091140008911400089114000891140008FC
:1000500091140008911400089114000891140008EC
:1000600091140008911400089114000891140008DC
:1000700091140008911400089114000891140008CC
:1000800091140008911400089114000891140008BC
:1000900091140008911400089114000891140008AC
:1000A000911400089114000891140008911400089C
:1000B000911400089114000891140008911400088C
:1000C000911400089114000891140008911400087C
:1000D000911400089114000891140008911400086C
:1000E0009114000891140008911400080000000009
:1000F0000000000000000000000000000000000000
:0C01000000000000000000005FF808F1A3
:10011000844641EA000313F0030349D1403A23D354
:100120000B6803604B6843608B688360CB68C36077
:100130000B6903614B6943618B698361CB69C3615F
:100140000B6A03624B6A43628B6A8362CB6AC36247
:100150000B6B03634B6B43638B6B8363CB6BC3632F
:1001600040304031403ADBD230320BD30B68036071
:100170004B6843608B688360CB68C360103010317C
:10018000103AF3D20C3205D351F8043B40F8043B4B
:10019000043AF9D2043208D0D2071CBF11F8013B4F
:1001A00000F8013B01D30B8803806046704700BF15
:1001B000082A13D38B07B1D010F00303AED0C3F1DC
:1001C0000403D21ADB071CBF11F8013B00F8013B06
:1001D000A4D331F8023B20F8023B9FE7043AD9D37D
:1001E000013A11F8013B00F8013BF9D20B7803709A
:1001F0004B7843708B7883706046704781F0004184
:1002000002E000BF83F0004330B54FEA41044FEAFB
:10021000430594EA050F08BF90EA020F1FBF54EA96
:10022000000C55EA020C7FEA645C7FEA655C00F032
:10023000E2804FEA5454D4EB5555B8BF6D420CDD03
:100240002C4480EA020281EA030382EA000083EA86
:10025000010180EA020281EA0303362D88BF30BD26
:1002600011F0004F4FEA01314FF4801C4CEA11317C
:1002700002D0404261EB410113F0004F4FEA0333DB
:100280004CEA133302D0524263EB430394EA050F66
:1002900000F0A780A4F10104D5F1200E0DDB02FAD5
:1002A0000EFC22FA05F2801841F1000103FA0EF269
:1002B000801843FA05F359410EE0A5F120050EF12F
:1002C000200E012A03FA0EFC28BF4CF0020C43FA60
:1002D00005F3C01851EBE37101F0004507D54FF06D
:1002E000000EDCF1000C7EEB00006EEB0101B1F5BD
:1002F000801F1BD3B1F5001F0CD349085FEA300003
:100300004FEA3C0C04F101044FEA445212F5800F0D
:1003100080F09A80BCF1004F08BF5FEA500C50F1AA
:10032000000041EB045141EA050130BD5FEA4C0C8D
:10033000404141EB0101013C28BFB1F5801FE9D2EA
:1003400091F0000F04BF01460020B1FA81F308BF0D
:100350002033A3F10B03B3F120020CDA0C3208DDD9
:1003600002F1140CC2F10C0201FA0CF021FA02F1B4
:100370000CE002F11402D8BFC2F1200C01FA02F124
:1003800020FA0CFCDCBF41EA0C019040E41AA2BF49
:1003900001EB0451294330BD6FEA04041F3C1CDA11
:1003A0000C340EDC04F11404C4F1200220FA04F031
:1003B00001FA02F340EA030021FA04F345EA0301DB
:1003C00030BDC4F10C04C4F1200220FA02F001FA9D
:1003D00004F340EA0300294630BD21FA04F029461F
:1003E00030BD94F0000F83F4801306BF81F48011B8
:1003F0000134013D4EE77FEA645C18BF7FEA655C2B
:1004000029D094EA050F08BF90EA020F05D054EAFC
:10041000000C04BF1946104630BD91EA030F1EBF01
:100420000021002030BD5FEA545C05D14000494105
:1004300028BF41F0004130BD14F580043CBF01F5F8
:10044000801130BD01F0004545F0FE4141F47001DE
:100450004FF0000030BD7FEA645C1ABF19461046B9
:100460007FEA655C1CBF0B46024650EA013406BFBA
:1004700052EA033591EA030F41F4002130BD00BF79
:1004800090F0000F04BF0021704730B54FF4806436
:1004900004F132044FF000054FF0000150E700BFB7
:1004A00090F0000F04BF0021704730B54FF4806416
:1004B00004F1320410F0004548BF40424FF0000103
:1004C0003EE700BF42004FEAE2014FEA31014FEA46
:1004D00002701FBF12F07F4393F07F4F81F0605195
:1004E000704732F07F4208BF704793F07F4F04BFE0
:1004F00041F40021704730B54FF4607401F00045BD
:1005000021F000411CE700BF50EA010208BF70471C
:1005100030B54FF000050AE050EA010208BF70470D
:1005200030B511F0004502D5404261EB41014FF476
:10053000806404F132045FEA915C3FF4D8AE4FF07E
:1005400003025FEADC0C18BF03325FEADC0C18BF61
:10055000033202EBDC02C2F1200300FA03FC20FAB2
:1005600002F001FA03FE40EA0E0021FA02F11444FF
:10057000BDE600BF70B54FF0FF0C4CF4E06C1CEA18
:1005800011541DBF1CEA135594EA0C0F95EA0C0F89
:1005900000F0DEF82C4481EA030621EA4C5123EAFC
:1005A0004C5350EA013518BF52EA033541F480112B
:1005B00043F4801338D0A0FB02CE4FF00005E1FBDE
:1005C00002E506F00042E0FB03E54FF00006E1FB28
:1005D00003569CF0000F18BF4EF0010EA4F1FF046B
:1005E000B6F5007F64F5407404D25FEA4E0E6D41AB
:1005F00046EB060642EAC62141EA55514FEAC520BC
:1006000040EA5E504FEACE2EB4F1FD0C88BFBCF537
:10061000E06F1ED8BEF1004F08BF5FEA500E50F1E8
:10062000000041EB045170BD06F0004646EA0101AE
:1006300040EA020081EA0301B4EB5C04C2BFD4EBE0
:100640000C0541EA045170BD41F480114FF0000ED9
:10065000013C00F3AB8014F1360FDEBF002001F047
:10066000004170BDC4F10004203C35DA0C341BDCC1
:1006700004F11404C4F1200500FA05F320FA04F093
:1006800001FA05F240EA020001F0004221F00041C7
:1006900010EBD37021FA04F642EB06015EEA430E3A
:1006A00008BF20EAD37070BDC4F10C04C4F120056A
:1006B00000FA04F320FA05F001FA04F240EA02001D
:1006C00001F0004110EBD37041F100015EEA430EEE
:1006D00008BF20EAD37070BDC4F1200500FA05F20E
:1006E0004EEA020E20FA04F301FA05F243EA02038D
:1006F00021FA04F001F0004121FA04F220EA02009C
:1007000000EBD3705EEA430E08BF20EAD37070BDE1
:1007100094F0000F0FD101F00046400041EB0101C1
:1007200011F4801F08BF013CF7D041EA060195F0A3
:10073000000F18BF704703F00046520043EB03035D
:1007400013F4801F08BF013DF7D043EA060370474A
:1007500094EA0C0F0CEA135518BF95EA0C0F0CD055
:1007600050EA410618BF52EA4306D1D181EA03019B
:1007700001F000414FF0000070BD50EA410606BF95
:100780001046194652EA430619D094EA0C0F02D1DA
:1007900050EA013613D195EA0C0F05D152EA03361F
:1007A0001CBF104619460AD181EA030101F000413D
:1007B00041F0FE4141F470014FF0000070BD41F086
:1007C000FE4141F4780170BD70B54FF0FF0C4CF460
:1007D000E06C1CEA11541DBF1CEA135594EA0C0F7F
:1007E00095EA0C0F00F0A7F8A4EB050481EA030ECC
:1007F00052EA03354FEA013100F088804FEA0333B3
:100800004FF0805545EA131343EA12634FEA022280
:1008100045EA111545EA10654FEA00260EF0004141
:100820009D4208BF964244F1FD0404F5407402D293
:100830005B084FEA3202B61A65EB03055B084FEA24
:1008400032024FF480104FF4002CB6EB020E75EB21
:10085000030E22BFB61A754640EA0C005B084FEA49
:100860003202B6EB020E75EB030E22BFB61A7546C6
:1008700040EA5C005B084FEA3202B6EB020E75EB11
:10088000030E22BFB61A754640EA9C005B084FEA89
:100890003202B6EB020E75EB030E22BFB61A754696
:1008A00040EADC0055EA060E18D04FEA051545EA85
:1008B00016754FEA06164FEAC30343EA52734FEA2E
:1008C000C2025FEA1C1CC0D111F4801F0BD141EAA7
:1008D00000014FF000004FF0004CB6E711F4801F0C
:1008E00004BF01430020B4F1FD0C88BFBCF5E06FEC
:1008F0003FF6AFAEB5EB030C04BFB6EB020C5FEAFC
:10090000500C50F1000041EB045170BD0EF0004E50
:100910004EEA113114EB5C04C2BFD4EB0C0541EA82
:10092000045170BD41F480114FF0000E013C90E67F
:1009300045EA060E8DE60CEA135594EA0C0F08BF43
:1009400095EA0C0F3FF43BAF94EA0C0F0AD150EA42
:1009500001347FF434AF95EA0C0F7FF425AF1046D5
:1009600019462CE795EA0C0F06D152EA03353FF4FD
:10097000FDAE1046194622E750EA410618BF52EA7A
:1009800043067FF4C5AE50EA41047FF40DAF52EA4E
:1009900043057FF4EBAE12E74FF0FF3C06E000BFEB
:1009A0004FF0010C02E000BF4FF0010C4DF804CDF8
:1009B0004FEA410C7FEA6C5C4FEA430C18BF7FEAB8
:1009C0006C5C1BD001B050EA410C0CBF52EA430CE6
:1009D00091EA030F02BF90EA020F0020704710F166
:1009E000000F91EA030F58BF994208BF90422CBFF5
:1009F000D8176FEAE37040F0010070474FEA410CEE
:100A00007FEA6C5C02D150EA013C07D14FEA430C0B
:100A10007FEA6C5CD6D152EA033CD3D05DF8040B7C
:100A2000704700BF8446104662468C4619466346AE
:100A300000E000BF01B5FFF7B7FF002848BF10F185
:100A4000000F01BD4DF808EDFFF7F4FF0CBF0120CA
:100A500000205DF808FB00BF4DF808EDFFF7EAFF46
:100A600034BF012000205DF808FB00BF4DF808ED01
:100A7000FFF7E0FF94BF012000205DF808FB00BFF6
:100A80004DF808EDFFF7CEFF94BF012000205DF880
:100A900008FB00BF4DF808EDFFF7C4FF34BF01208D
:100AA00000205DF808FB00BF4FEA410C7FEA6C5C58
:100AB00002D150EA013C0AD14FEA430C7FEA6C5C58
:100AC00002D152EA033C02D14FF0000070474FF0D0
:100AD000010070474FEA410212F5001215D211D5FC
:100AE0006FF47873B3EB625212D94FEAC12343F02B
:100AF000004343EA505311F0004F23FA02F018BFAD
:100B0000404270474FF00000704750EA013005D175
:100B100011F0004008BF6FF0004070474FF0000038
:100B2000704700BF0348044B834202D0034B03B11C
:100B300018477047E4060020E4060020000000008B
:100B40000548064B1B1AD90F01EBA301491002D02F
:100B5000034B03B118477047E4060020E406002069
:100B60000000000010B5064C237843B9FFF7DAFF08
:100B7000044B13B10448AFF300800123237010BD70
:100B8000E40600200000000074B1000808B5054B21
:100B90001BB105490548AFF30080BDE80840FFF7E9
:100BA000CFBF00BF00000000E806002074B10008BD
:100BB00082B00A4B9A6942F008029A619A6902F07F
:100BC00008020092009A9A6942F004029A619B69B5
:100BD00003F004030193019B02B070470010024030
:100BE00072B6FEE708B50A480A4B03600A4B436039
:100BF00000238360C3604FF48042026143618361DC
:100C0000C361036201F092F900B908BDFFF7E8FF84
:100C10009C07002000540040A086010008B50A4847
:100C20000A4B03604FF4E133436000238360C360E9
:100C300003610C2242618361C36102F0C3FA00B90F
:100C400008BDFFF7CDFF00BF0007002000380140BE
:100C500008B50A480A4B03600A4B436000238360CF
:100C6000C3604FF48042026143618361C3610362E8
:100C700001F05CF900B908BDFFF7B2FF480700209A
:100C800000580040A086010000B591B02822002144
:100C900006A802F013FD002301930293039304932B
:100CA00005930223069301230A9310230B9306A8AE
:100CB00001F0EEFE68B90F23019300210291039128
:100CC0000491059101A802F015F920B911B05DF861
:100CD00004FBFFF785FFFFF783FF000070B5ADF55C
:100CE000047D00F0FDFBFFF7CFFF6F4B5A6942F028
:100CF00001025A615B6903F001031793179BFFF729
:100D000057FFFFF76FFFFFF789FFFFF7A1FF674C62
:100D100004F10C054826324629466846FFF7F8F9E3
:100D200094E80E00402000F027FA32462946684633
:100D3000FFF7EEF994E80E00422000F01DFA32466B
:100D400029466846FFF7E4F994E80E00442000F0D5
:100D500013FA324629466846FFF7DAF994E80E009E
:100D6000462000F009FA0023ADF80A32ADF89E31B2
:100D7000ADF83231ADF8C6304C4C54252A462146E8
:100D80006846FFF7C5F90DF20A2383AA0DF20E217A
:100D9000402000F0B5F82A4621466846FFF7B8F92A
:100DA0000DF5CF7368AA0DF5D171422000F0A8F8B7
:100DB0002A4621466846FFF7ABF90DF599734DAA0F
:100DC0000DF59B71442000F09BF82A4621466846A9
:100DD000FFF79EF90DF1C60332AA0DF1CA014620B4
:100DE00000F08EF8BDF90A320193BDF90C32009380
:100DF000BDF90E322E4A642169A802F0D1FBBDF97B
:100E00009E310193BDF9A0310093BDF9A231294A69
:100E100064214EA802F0C4FBBDF932310193BDF943
:100E200034310093BDF93631234A642133A802F0EE
:100E3000B7FBBDF9C6300193BDF9C8300093BDF9C9
:100E4000CA301E4A642118A802F0AAFB69A802F061
:100E50000FFD1B4C4FF0FF3382B269A9204602F010
:100E6000E1F94EA802F004FD4FF0FF3382B24EA923
:100E7000204602F0D7F933A802F0FAFC4FF0FF3316
:100E800082B233A9204602F0CDF918A802F0F0FC96
:100E90004FF0FF3382B218A9204602F0C3F94FF495
:100EA0007A7000F041FB67E7001002409C070020C9
:100EB00098B10008C4B10008F0B100081CB20008E5
:100EC0000007002084B000B587B0844609A880E8F8
:100ED0000E004FF47A730293012301930DF1170270
:100EE00000923422614601F019FC9DF8170000F0D1
:100EF00080008DF8170007B05DF804EB04B0704770
:100F00002DE9F04397B005460F4690461E46002354
:100F1000139314938DF8543070238DF84B3048227E
:100F200021A96846FFF7F4F81EAB0ECB2846FFF761
:100F3000C9FF80287BD14FF47A7302930923019370
:100F400013AB00930123242229461EA801F0E6FBDF
:100F500081469DF84C209DF84D301B0243EA024328
:100F60009DF84E201343354A1360B3F5000F02DBA2
:100F700043F07F4313609DF84F209DF850301B02D3
:100F800043EA02439DF8512013432C4A5360B3F5C2
:100F9000000F02DB43F07F4353609DF852309DF811
:100FA0005340240244EA03449DF854301C43234B2D
:100FB0009C60B4F5000F02DB44F07F449C601F4846
:100FC00003686FF00C0101FB03F31D4A82FB03C4AD
:100FD000DB17C3EBA413A8F80030436801FB03F34D
:100FE00082FB03C4DB17C3EBA4133B80836801FBC4
:100FF00003F382FB0312DB17C3EBA21333804FF41E
:101000007A730293012301930DF14B0200920022A7
:1010100029461EA801F0D0FAB9F1000F00D150B155
:1010200002464946074802F04DFA012003E006480F
:1010300002F0AEFA012017B0BDE8F083F0070020FF
:10104000D34D621048B2000868B2000810B5046CB5
:101050001CB9204802F09CFA10BD21461E4802F03F
:1010600031FA14F0100F18D114F0080F19D114F040
:10107000040F1AD114F0020F1BD114F0010F1CD170
:1010800014F0400F1DD114F0200F1ED114F0800F6A
:10109000E2D0124802F07CFADEE7114802F078FA5A
:1010A000E2E7104802F074FAE1E70F4802F070FA44
:1010B000E0E70E4802F06CFADFE70D4802F068FA4C
:1010C000DEE70C4802F064FADDE70B4802F060FA54
:1010D000DCE700BF7CB2000888B200082CB300082F
:1010E0009CB20008ACB20008C8B20008E0B2000828
:1010F000FCB200080CB300081CB3000884B070B543
:1011000084B0054609AC84E80E0000238DF80F304A
:1011100035238DF80E304FF47A76009601230DF1C9
:101120000E020146204600F0DFFF009601230DF17C
:101130000F0245EA0301204601F092F870B9044617
:101140009DF80F101B290ED0094802F0BBF90124AD
:10115000204604B0BDE8704004B0704709A8FFF70E
:1011600075FF0124F4E7034802F0ACF9F0E700BF93
:1011700048B3000864B3000884B070B596B0054663
:101180001BAC84E80E001E4B93E803001490ADF8EE
:10119000541048221EA96846FEF7BAFF94E80E00D4
:1011A0002846FFF7ABFF28B1012016B0BDE870401C
:1011B00004B070474FF47A7602960623019314AB7D
:1011C0000093012304222946204601F0F5F9044644
:1011D00070238DF84F300296012301930DF14F02D9
:1011E0000092002229461BA801F0E6F90CB900285C
:1011F000DBD002462146034802F064F90120D4E71F
:1012000090B1000848B2000882B00E4B9A6942F0D3
:1012100001029A619A6902F001020092009ADA6969
:1012200042F08052DA61DB6903F080530193019B45
:10123000054A536823F0E06343F00073536002B043
:10124000704700BF001002400000014010B588B098
:10125000002304930593069307930368224A93425D
:1012600004D0224A93421FD008B010BD204CA3697D
:1012700043F00803A361A36903F008030093009BF4
:10128000C0230493122305930323079304A9194849
:1012900000F0C8F9E36943F40013E361E36903F480
:1012A00000130193019BDFE7114CA36943F008038E
:1012B000A361A36903F008030293029B4FF4406308
:1012C0000493122305930323079304A9094800F00C
:1012D000A9F9E36943F48003E361E36903F480035C
:1012E0000393039BC0E700BF005400400058004038
:1012F00000100240000C014010B586B0002302939C
:101300000393049305930268174B9A4201D006B0E9
:1013100010BD03F558439A6942F480429A619A6974
:1013200002F480420092009A9A6942F004029A61A3
:101330009B6903F004030193019B4FF40073029334
:101340000223039303230593084C02A9204600F0CF
:1013500069F94FF48063029300230393049302A975
:10136000204600F05FF9D2E7003801400008014054
:10137000FEE7FEE7FEE7FEE7FEE7704770477047CF
:1013800008B500F0BFF808BD0120704708B502F0AD
:1013900039FA162303604FF0FF3008BD08B54FF04F
:1013A000FF31FFF7F3FFFEE770B50C461646002548
:1013B00006E0AFF30080214601F8010B01350C4631
:1013C000B542F6DB304670BD70B50C4616460025BA
:1013D00004E014F8010BAFF300800135B542F8DBEF
:1013E000304670BD4FF0FF3070474FF400534B60F4
:1013F00000207047012070470020704710B5034659
:101400000C4A0D490D48006840B10C48006803447F
:10141000521A934206D8094A136010BD0748084C77
:101420000460F2E702F0EEF90C2303604FF0FF30A6
:10143000F3E700BF0050002000040000FC0700207C
:10144000180B002070470000FFF7FCFF0B480C4909
:101450000C4A002302E0D458C4500433C4188C4210
:10146000F9D3094A094C002301E013600432A24277
:10147000FBD302F0CDF9FFF731FC704700000020EC
:10148000E4060020C0B70008E4060020180B002086
:10149000FEE7000010B504460E4B1A784FF47A733D
:1014A000B3FBF2F30C4A1068B0FBF3F000F0A6F8BF
:1014B00068B90F2C01D901200AE0002221464FF023
:1014C000FF3000F08BF8054B1C60002000E001208D
:1014D00010BD00BF04000020000000200800002014
:1014E00008B5074A136843F010031360032000F0A7
:1014F00063F80F20FFF7CEFFFFF786FE002008BD40
:1015000000200240034A1168034B1B780B44136010
:10151000704700BF0008002004000020014B18683D
:10152000704700BF0008002038B50446FFF7F6FFFB
:101530000546B4F1FF3F02D0044B1B781C44FFF773
:10154000EDFF401BA042FAD338BD00BF04000020CD
:10155000002808DB0901C9B200F1604000F56140D4
:1015600080F80013704700F00F000901C9B2014B69
:101570001954704714ED00E000B500F00700C0F109
:10158000070CBCF1040F28BF4FF0040C031D062B01
:101590000FD9C31E4FF0FF3E0EFA0CF021EA0001F6
:1015A00099400EFA03FE22EA0E0241EA02005DF8BB
:1015B00004FB0023EEE70000074AD36823F4E0634E
:1015C0001B041B0C000200F4E060034343F0BF6304
:1015D00043F40033D360704700ED00E010B50446DB
:1015E000054BD868C0F30220FFF7C6FF014620462E
:1015F000FFF7AEFF10BD00BF00ED00E00138B0F115
:10160000807F0BD24FF0E0235861054AF02182F829
:1016100023100020986107221A617047012070474B
:1016200000ED00E070B582B00024A446A1E07E4D3C
:10163000AB4214D00CD8A5F58015AB420FD005F500
:101640007025AB420BD0A5F58015AB4210D106E05A
:10165000764DAB4203D005F58035AB4208D18B689F
:10166000002B50D0012B49D04261082400E0CC6807
:10167000BEF1FF0F49D806464FEA8C0233680F25AA
:10168000954023EA050304FA02F2134333604B68E2
:1016900013F0805F6BD0664B9A6942F001029A6149
:1016A0009B6903F001030193019B4FEA9C02951C87
:1016B000604B53F825600CF00305AD000F23AB40E1
:1016C00026EA03065C4B984226D003F580639842D5
:1016D00000F08C8003F58063984200F0898003F568
:1016E0008063984216D0042317E0CC680434BFE727
:1016F000CC680834BCE7CC680C34B9E70261082434
:10170000B6E70024B4E70424B2E7061DACF10802F2
:101710009200B3E7032300E00023AB4033430232DF
:10172000444D45F822304B6813F4801F62D0434A81
:10173000936843EA0E0393604B6813F4001F5FD075
:101740003E4AD36843EA0E03D3604B6813F4003F6C
:101750005CD03A4A536843EA0E0353604B6813F473
:10176000803F59D0354A136843EA0E0313600CF1E9
:10177000010C0B6833FA0CF254D0012202FA0CF27D
:1017800003EA020E32EA0303F1D14B68122B3FF653
:101790004EAF122B3FF66CAF01A555F823F000BFFA
:1017A0005F1600086F160008F116000803170008FE
:1017B00071160008711600087116000871160008ED
:1017C00071160008711600087116000871160008DD
:1017D00071160008711600087116000871160008CD
:1017E00071160008EB160008F7160008012394E7AD
:1017F000022392E7114A936823EA0E0393609BE762
:101800000E4AD36823EA0E03D3609EE70B4A53685F
:1018100023EA0E035360A1E7084A136823EA0E0384
:101820001360A4E702B070BD000022100000311068
:101830000010024000000140000801400004014087
:1018400003685A6912F4806F01D1002070476FF469
:1018500080625A6100230363202280F83D2080F8D3
:101860003E30026C42F00402026480F83C300120F9
:1018700070472DE9F04106460C46174698463BE076
:10188000FFF74CFE069BC01A404502D8B8F1000F86
:1018900032D1012D18D033689B6924EA03039BB22F
:1018A000B3FA83F35B099F4226D1002333632022DE
:1018B00086F83D2086F83E30326C42F020023264D9
:1018C00086F83C30012027E033685B6924EA030393
:1018D0009BB2B3FA83F35B09E5E733685B6924EAFB
:1018E000030C1FFA8CFCBCFA8CFC4FEA5C1C6745AD
:1018F00011D1B8F1FF3FC3D1C4F30745012DECD09E
:1019000033689B6924EA030C1FFA8CFCBCFA8CFC3C
:101910004FEA5C1CEBE70020BDE8F0812DE9F843BD
:1019200005460E469046994653E01A6842F4007206
:101930001A602B686FF480625A6100232B632022A7
:1019400085F83D2085F83E302A6C42F004022A6476
:1019500085F83C3001204AE0FFF7E0FDA0EB0900EC
:10196000404502D8B8F1000F33D1012F17D02B68B2
:101970009B6926EA03039BB2003B18BF012343B3D4
:1019800000232B63202285F83D2085F83E302A6C09
:1019900042F020022A6485F83C30012027E02B68C1
:1019A0005B6926EA03039BB2003B18BF0123E6E70D
:1019B0002B689C6926EA0404A4B2003C18BF0124E9
:1019C000A4B12B685A6912F4806FAED1B8F1FF3F11
:1019D000C2D1C6F30747012FEAD12B685C6926EA1A
:1019E0000404A4B2003C18BF0124E9E70020BDE8CC
:1019F000F8830000F0B583B004460D4616461F4636
:101A0000C36A082B0DD0012B0BD013F5803F08D0F3
:101A1000036B122B0AD10268136843F480731360BE
:101A200004E02268136843F4807313600097334620
:101A300000224FF001112046FFF71BFF80B92369F8
:101A4000B3F5804F16D1236805F0FE051D613B46B6
:101A5000324613492046FFF761FFF8B903B0F0BDE5
:101A600023681B6813F4807F02D04FF40073236453
:101A70000320F3E7EB11226803F0060343F0F003C1
:101A800013613B46324607492046FFF747FF18B926
:101A90002368EDB21D61DAE70120DFE70120DDE711
:101AA00002000100080001002DE9F04184B0044665
:101AB0000D4616461F46C26A01680B6843F48063F0
:101AC0000B60082A0DD0012A0BD012F5803F08D0F8
:101AD000036B112B0AD10268136843F480731360FF
:101AE00004E02268136843F4807313600097334660
:101AF00000224FF001112046FFF7BBFE98B9236981
:101B0000B3F5804F19D1236845F00105EDB21D6191
:101B10003B4632462A492046FFF700FF00284CD1B9
:101B200004B0BDE8F08123681B6813F4807F02D005
:101B30004FF4007323640320F2E74FEAE51808F03E
:101B40000608236848F0F0021A613B4632461D49F8
:101B50002046FFF7E3FE08B10120E1E72368EDB27C
:101B60001D613B46324616492046FFF7D7FE08B1B5
:101B70000120D5E7002203922368596903919969EE
:101B800003910399196841F48071196000973346F5
:101B90004FF001112046FFF76CFE20B9226848F093
:101BA000F1031361B4E723681B6813F4807F02D04C
:101BB0004FF4007323640320B2E70120B0E700BFB5
:101BC000020001000800010070B504460D461646EB
:101BD00023685B6913F0800F21D12046FFF730FEA8
:101BE000F8B9B5F1FF3FF3D0FFF798FC801BA8428E
:101BF00001D8002DECD123685B6913F0800FE7D189
:101C000000232363202284F83D2084F83E30226C98
:101C100042F02002226484F83C30012000E00020E1
:101C200070BD0120FCE700002DE9F04385B00446BB
:101C30000D4691461F46DDF830800D9E03681968F9
:101C400041F4807119600096434600224FF0011163
:101C5000FFF70FFE60B9236805F0FE051D613346EE
:101C6000424626492046FFF759FE68B1012008E0A8
:101C700023681B6813F4807F02D04FF40073236441
:101C8000032005B0BDE8F0830023039323685A695D
:101C900003929B690393039B324641462046FFF71C
:101CA00093FF30B9012F0FD123685FFA89F61E61C7
:101CB000E7E7236C042B01D00120E2E722681368D8
:101CC00043F400731360F7E723684FEA19221A619F
:101CD000324641462046FFF777FF20B923685FFA76
:101CE00089F61E61CDE7236C042B01D00120C8E7E3
:101CF0002268136843F400731360F7E702000100E1
:101D00002DE9F04784B004460D46164699460C9FCF
:101D1000DDF834800268136843F48063136003685D
:101D2000196841F480711960CDF800803B460022AB
:101D30004FF00111FFF79DFD70B95FFA85FA236836
:101D400005F0FE051D6143463A4641492046FFF72E
:101D5000E5FD68B1012008E023681B6813F4807F6B
:101D600002D04FF400732364032004B0BDE8F08771
:101D70000023039323685A6903929B690393039B8F
:101D8000424639462046FFF71FFF80B9B9F1010FDF
:101D900018D12368F6B21E61424639462046FFF745
:101DA00013FF68B3236C042B24D00120DDE7236CE0
:101DB000042B01D00120D8E72268136843F4007394
:101DC0001360F7E72368320A1A6142463946204613
:101DD000FFF7FAFE18B92368F6B21E61DCE7236C40
:101DE000042B01D00120C0E72268136843F400737C
:101DF0001360F7E72268136843F400731360D4E7B5
:101E00002268136843F480731360CDF800803B466A
:101E100000224FF001112046FFF72BFD68B9226820
:101E20004AF00103136143463A4609492046FFF749
:101E300075FD002899D0012097E723681B6813F4EB
:101E4000807F02D04FF40073236403208DE700BF2E
:101E50000200010070B504460D46164623685B6912
:101E600013F0040F21D12046FFF7EAFCF8B9B5F1D1
:101E7000FF3FF3D0FFF752FB801BA84201D8002D93
:101E8000ECD123685B6913F0040FE7D100232363CF
:101E9000202284F83D2084F83E30226C42F020025B
:101EA000226484F83C30012000E0002070BD012055
:101EB000FCE770B504460D46164614E06FF01002BC
:101EC0005A6100232363202284F83D2084F83E30A9
:101ED000226C226484F83C30012025E023685B6991
:101EE00013F0400F10D02368586910F0400F1AD13A
:101EF000586910F0100FE1D1FFF710FB801BA842CA
:101F0000ECD8002DEFD1E9E700232363202284F8E9
:101F10003D2084F83E30226C42F02002226484F896
:101F20003C30012000E0002070BD0000002800F0DF
:101F3000CC8070B5044690F83D30002B77D0242338
:101F400084F83D302268136823F00103136022688F
:101F5000136843F4004313602268136823F40043BA
:101F6000136001F083F862685A4B9A4264D85A4B66
:101F700098428CBF00230123002B40F0A8805749D2
:101F8000A1FB00318B0C25686A6822F03F0242EA0F
:101F900091426A6021680A6A22F03F0266684D4DEC
:101FA000AE424FD8013313430B622168CA6922F451
:101FB0004F4222F0FF026568464B9D424CD8431EBB
:101FC0006D00B3FBF5F3013340F6FC70034278D0AB
:101FD000C3F30B031A43CA6121680B6823F0C003E3
:101FE000E269206A024313430B6021688B6823F483
:101FF000034323F0FF032269E068024313438B602D
:102000002168CB6823F0FF036269A0690243134390
:10201000CB602268136843F0010313600020206442
:10202000202384F83D30206384F83E0070BD80F8A2
:102030003C30FFF70BF982E7294B98428CBF002315
:10204000012399E74FF4967505FB03F3254DA5FB96
:1020500003539B090133A6E7A668BEB9431E05EBEF
:10206000450CB3FBFCF30133C3F30B03B3FA83F367
:102070005B0943BBC6B9431E05EB4505B3FBF5F34E
:102080000133C3F30B0343F40043A3E7431E05EB03
:10209000850C0CEB8C0CB3FBFCF30133C3F30B038B
:1020A000B3FA83F35B09E4E7431E05EB850505EB13
:1020B0008505B3FBF5F30133C3F30B0343F440434E
:1020C00088E7042386E7012384E701207047012085
:1020D000ACE700BFA08601007F841E0083DE1B43A7
:1020E000FF083D00D34D62102DE9F04385B0044652
:1020F0000F46914698460C9EFFF710FA054694F855
:102100003D00C0B2202804D00227384605B0BDE803
:10211000F0830095192301224F492046FFF7A9FBC0
:10212000002840F0928094F83C30012B00F08F8022
:10213000012384F83C3023681A6812F0010F03D1A0
:102140001A6842F001021A602268136823F40063DF
:102150001360212384F83D30102384F83E3000239F
:102160002364C4F82490A4F82A80638D23853B4B14
:10217000E3622B46324639462046FFF73BFC0746D2
:10218000002866D10023039323685A6903929B6950
:102190000393039B11E0236C042B01D00127B4E7C8
:1021A0002268136843F400731360F7E72A46314648
:1021B0002046FFF74FFE00282ED1238D002B36D06E
:1021C0002A4631462046FFF7FFFC0028E3D1626A29
:1021D000236812781A61606A431C6362618D89B258
:1021E000013989B26185238D013B9BB22385226829
:1021F000516911F0040FD9D0002BD7D04378136167
:10220000636A01336362638D9BB2013B9BB263855A
:10221000238D013B2385C9E7236C042B01D00127C3
:1022200073E72268136843F400731360F7E72268CA
:10223000136843F400731360202384F83D300023B7
:1022400084F83E3084F83C305FE702275DE70227E0
:102250005BE7012759E700BF020010000000FFFF05
:102260002DE9F04389B004460F4691469846109EEA
:1022700000230793FFF752F9054694F83D00C0B2DA
:10228000202804D00227384609B0BDE8F083009525
:102290001923012280492046FFF7EBFA002840F07D
:1022A0007A8194F83C30012B00F07781012384F887
:1022B0003C3023681A6812F0010F03D11A6842F00B
:1022C00001021A602268136823F40063136022235A
:1022D00084F83D30102384F83E3000232364C4F892
:1022E0002490A4F82A80638D23856C4BE3622B46EF
:1022F000324639462046FFF7D7FB0746002840F014
:102300004E81238D5BB9039323685A6903929A69BE
:102310000392039A1A6842F400721A60F3E0012BE8
:102320000FD0022B21D02268136843F4806313601E
:102330000023069323685A6906929B690693069BBD
:10234000E1E02268136823F48063136072B600230F
:10235000049323685A6904929A690492049A1A6849
:1023600042F400721A6062B6CDE02268136843F44A
:102370000063136072B60023059323685A690592BF
:102380009A690592059A1A6822F480621A6062B608
:10239000B9E02A4631462046FFF78BFD002840F081
:1023A000008123681A69636A1A70636A0133636281
:1023B000238D013B2385638D9BB2013B9BB26385DB
:1023C000A1E000953346002235492046FFF751FA37
:1023D000002840F0EA802268136823F480631360C9
:1023E00072B623681A69636A1A70636A013363629A
:1023F000238D013B2385638D9BB2013B9BB263859B
:10240000284B1B68DB08284AA2FB03231B0A03EBAB
:102410008303C3EBC3030793079901390791079916
:10242000002928D023685A6912F0040FF4D01A68E2
:1024300042F400721A6023681A69636A1A70636A48
:1024400001336362238D013B2385638D9BB2013B86
:102450009BB2638562B623681A69636A1A70636AFD
:1024600001336362238D013B2385638D9BB2013B66
:102470009BB2638547E000232363202284F83D203C
:1024800084F83E30226C42F02002226462B684F866
:102490003C300127F7E600BF020010000000FFFFFC
:1024A000040001000000002089B5F8142A463146D6
:1024B0002046FFF7FEFC002879D123681A69636A79
:1024C0001A70636A01336362228D013A92B22285E7
:1024D000638D9BB2013B9BB263852368596911F000
:1024E000040F10D0032A48D023681A69636A1A704F
:1024F000636A01336362238D013B2385638D9BB245
:10250000013B9BB26385218D00293BD00329CDD8A7
:1025100001293FF43EAF02297FF453AF00953346C3
:10252000002224492046FFF7A4F900283BD172B6C7
:102530002268136843F40073136023681A69636A9E
:102540001A70636A01336362238D013B2385638DB7
:102550009BB2013B9BB2638562B623681A69636ACA
:102560001A70636A01336362238D013B2385638D97
:102570009BB2013B9BB26385C5E71A6822F4806277
:102580001A60B1E7202384F83D30002384F83E3000
:1025900084F83C3077E6022775E6022773E60127C8
:1025A00071E601276FE601276DE601276BE601273B
:1025B00069E600BF040001002DE9F04383B0044642
:1025C0000F46904699460C9EFEF7A8FF054694F8E4
:1025D0003D00C0B2202803D0022003B0BDE8F08344
:1025E0000095192301224B492046FFF742F90028A4
:1025F00040F0898094F83C30012B00F08680012364
:1026000084F83C3023681A6812F0010F03D11A686D
:1026100042F001021A602268136823F40063136019
:10262000212384F83D30402384F83E300023236486
:102630000A9B6362BDF82C306385638D2385364B1E
:10264000E362019500964B46424639462046FFF725
:10265000EBFA00285BD1238D002B35D02A4631467A
:102660002046FFF7B1FA20BB626A236812781A612C
:10267000626A531C6362218D013989B22185638DA1
:102680009BB2013B9BB263852368586910F0040F2D
:10269000E1D00029DFD052781A61636A01336362A6
:1026A000238D013B2385638D9BB2013B9BB26385E8
:1026B000D1E7236C042B01D001208EE72268136838
:1026C00043F400731360F7E72A4631462046FFF7CC
:1026D000C1FB50B1236C042B01D001207DE722689F
:1026E000136843F400731360F7E72268136843F438
:1026F00000731360202384F83D30002384F83E30BB
:1027000084F83C3069E7022067E7022065E7012092
:1027100063E700BF020010000000FFFF2DE9F04357
:1027200089B004460F4690469946129E00230793AF
:10273000FEF7F4FE054694F83D00C0B2202804D010
:102740000227384609B0BDE8F0830095192301221D
:1027500081492046FFF78DF8002840F0728194F8F7
:102760003C30012B00F06F81012384F83C3023685A
:102770001A6812F0010F03D11A6842F001021A60C0
:102780002268136823F400631360222384F83D3029
:10279000402384F83E3000232364109B6362BDF81D
:1027A00044306385638D23856C4BE362019500960D
:1027B0004B46424639462046FFF7A2FA0746002814
:1027C00040F04381238D5BB9039323685A690392D8
:1027D0009A690392039A1A6842F400721A60EDE053
:1027E000012B0FD0022B21D02268136843F48063A1
:1027F00013600023069323685A6906929B69069327
:10280000069BDBE02268136823F48063136072B6D2
:102810000023049323685A6904929A690492049AE3
:102820001A6842F400721A6062B6C7E02268136840
:1028300043F40063136072B60023059323685A695A
:1028400005929A690592059A1A6822F480621A60C4
:1028500062B6B3E02A4631462046FFF72AFB00283D
:1028600040F0F58023681A69636A1A70636A01335D
:102870006362238D013B2385638D9BB2013B9BB239
:1028800063859BE000953346002235492046FEF7DC
:10289000F0FF002840F0DF802268136823F4806393
:1028A000136072B623681A69636A1A70636A013327
:1028B0006362238D013B2385638D9BB2013B9BB2F9
:1028C0006385284B1B68DB08274AA2FB03231B0AEE
:1028D00003EB8303C3EBC3030793079B013B0793FE
:1028E000079B002B28D023685A6912F0040FF4D0FC
:1028F0001A6842F400721A6023681A69636A1A70CF
:10290000636A01336362238D013B2385638D9BB230
:10291000013B9BB2638562B623681A69636A1A70C9
:10292000636A01336362238D013B2385638D9BB210
:10293000013B9BB2638541E02363202284F83D2064
:1029400084F83E30226C42F02002226462B684F8A1
:102950003C300127F5E600BF020010000000FFFF39
:10296000040001000000002089B5F8142A46314611
:102970002046FFF79EFA00286FD123681A69636A20
:102980001A70626A531C6362238D013B2385638D39
:102990009BB2013B9BB263852368596911F0040F18
:1029A0000CD01B695370636A01336362238D013B52
:1029B0002385638D9BB2013B9BB26385238D002BE6
:1029C00036D0032BD2D8012B3FF444AF022B7FF437
:1029D00059AF00953346002221492046FEF749FFB2
:1029E000002836D172B62268136843F4007313606E
:1029F00023681A69636A1A70636A01336362238DFC
:102A0000013B2385638D9BB2013B9BB2638562B61C
:102A100023681A69636A1A70636A01336362238DDB
:102A2000013B2385638D9BB2013B9BB26385C5E768
:102A3000202384F83D30002384F83E3084F83C3075
:102A40007FE602277DE602277BE6012779E601275C
:102A500077E6012775E6012773E6012771E600BFD7
:102A60000400010082B0084B1B68084AA2FB032344
:102A70005B0A00FB03F3019300BF019B5A1E019206
:102A8000002BF9D102B0704700000020D34D621036
:102A9000002800F0F18170B582B00446036813F09D
:102AA000010F2CD0994B5B6803F00C03042B1DD055
:102AB000964B5B6803F00C03082B12D06368B3F5E8
:102AC000803F41D0002B55D103F1804303F50433FF
:102AD0001A6822F480321A601A6822F480221A607E
:102AE00037E08A4B5B6813F4803FE7D0874B1B6865
:102AF00013F4003F03D06368002B00F0BF8123680C
:102B000013F0020F75D0814B5B6813F00C0F5FD090
:102B10007E4B5B6803F00C03082B54D02369002B19
:102B200000F08A807A4B01221A60FEF7F7FC054616
:102B3000764B1B6813F0020F75D1FEF7EFFC401BBC
:102B40000228F5D903209EE1704A136843F48033CC
:102B50001360636843B3FEF7E1FC05466B4B1B68EB
:102B600013F4003FCBD1FEF7D9FC401B6428F5D904
:102B7000032088E1B3F5A02F09D0644B1A6822F432
:102B800080321A601A6822F480221A60E1E703F1A9
:102B90008043A3F53C331A6842F480221A601A6815
:102BA00042F480321A60D4E7FEF7B8FC0546574B72
:102BB0001B6813F4003FA2D0FEF7B0FC401B642852
:102BC000F5D903205FE1514B5B6813F4803FA5D139
:102BD0004E4B1B6813F0020F03D02369012B40F00A
:102BE0004F814A4A136823F0F803616943EAC1033D
:102BF0001360236813F0080F33D0A369002B5CD057
:102C0000434B0122C3F88024FEF788FC05463F4B66
:102C10005B6A13F0020F21D1FEF780FC401B0228F3
:102C2000F5D903202FE1394A136823F0F8036169CD
:102C300043EAC1031360DCE7354B00221A60FEF75C
:102C40006DFC0546314B1B6813F0020FD1D0FEF727
:102C500065FC401B0228F5D9032014E10120FFF791
:102C600001FF236813F0040F00F09680274BDB6907
:102C700013F0805F34D1254BDA6942F08052DA617B
:102C8000DB6903F080530193019B0125214B1B68F5
:102C900013F4807F26D0E368012B3DD0002B53D165
:102CA00003F1804303F504331A6A22F001021A6229
:102CB0001A6A22F004021A6233E0154B0022C3F8AC
:102CC0008024FEF72BFC0546104B5B6A13F0020FC5
:102CD000C7D0FEF723FC401B0228F5D90320D2E021
:102CE0000025D3E70B4A136843F480731360FEF7A3
:102CF00015FC0646074B1B6813F4807FCBD1FEF70B
:102D00000DFC801B6428F5D90320BCE000100240B4
:102D100000004242007000405F4A136A43F0010322
:102D20001362E36833B3FEF7F9FB06465A4B1B6A9E
:102D300013F0020F2FD1FEF7F1FB801B41F2883315
:102D40009842F3D903209EE0052B09D0524B1A6A12
:102D500022F001021A621A6A22F004021A62E0E703
:102D60004D4B1A6A42F004021A621A6A42F00102DA
:102D70001A62D6E7FEF7D2FB0646474B1B6A13F0F2
:102D8000020F08D0FEF7CAFB801B41F2883398423D
:102D9000F3D9032077E0E5B9E369002B72D03E4A0E
:102DA000526802F00C02082A56D0022B17D03B4B77
:102DB00000221A66FEF7B2FB0446374B1B6813F07D
:102DC000007F47D0FEF7AAFB001B0228F5D903209D
:102DD00059E0314AD36923F08053D361DCE72F4BAC
:102DE00000221A66FEF79AFB05462B4B1B6813F070
:102DF000007F06D0FEF792FB401B0228F5D9032086
:102E000041E0236AB3F5803F1AD023494B6823F48D
:102E10007413226A606A024313434B601F4B012202
:102E20001A66FEF77BFB04461B4B1B6813F0007F02
:102E30000ED1FEF773FB001B0228F5D9032022E018
:102E4000154A536823F40033A1680B435360DCE751
:102E5000002018E0002016E0012B16D00E4B5B6816
:102E600003F48031226A914211D103F47013626A33
:102E700093420ED1002006E001207047012002E0BD
:102E8000012000E0002002B070BD0120FBE701201E
:102E9000F9E70120F7E700BF0010024000004242BE
:102EA0000F4B5B6803F00C02082A01D00D487047F5
:102EB000C3F383420C49885C13F4803F0BD0084B6A
:102EC0005B68C3F34043094AD35C064A02FB00F047
:102ED000B0FBF3F07047064B03FB00F0704700BFF8
:102EE0000010024000127A003CB5000838B5000816
:102EF00000093D00002800F0A08070B50D46044692
:102F0000524B1B6803F007038B420BD24F4A1368E6
:102F100023F007030B431360136803F007038B428E
:102F200040F08D80236813F0020F17D013F0040FC8
:102F300004D0474A536843F4E0635360236813F0B6
:102F4000080F04D0424A536843F460535360404A28
:102F5000536823F0F003A1680B435360236813F018
:102F6000010F31D06368012B20D0022B25D0384AC5
:102F7000126812F0020F64D035494A6822F0030249
:102F800013434B60FEF7CAFA0646314B5B6803F009
:102F90000C036268B3EB820F16D0FEF7BFFA801BFA
:102FA00041F288339842F0D9032045E0284A12685C
:102FB00012F4003FE0D101203EE0254A126812F0F1
:102FC000007FD9D1012037E0204B1B6803F00703B5
:102FD000AB420AD91D4A136823F007032B43136041
:102FE000136803F00703AB422DD1236813F0040FDD
:102FF00006D0174A536823F4E063E1680B4353603B
:10300000236813F0080F07D0114A536823F4605364
:10301000216943EAC1035360FFF742FF0C4B5B6831
:10302000C3F303130B4AD35CD8400B4B18600B4B14
:103030001868FEF72FFA002070BD012070470120AC
:10304000FAE70120F8E70120F6E700BF0020024080
:103050000010024028B500080000002008000020F1
:10306000014B1868704700BF0000002008B5FFF74B
:10307000F7FF044B5B68C3F30223034AD35CD840D9
:1030800008BD00BF0010024020B5000808B5FFF7DA
:10309000E7FF044B5B68C3F3C223034AD35CD84009
:1030A00008BD00BF0010024020B5000810B504465E
:1030B0000268136923F44053C1680B4313618368AA
:1030C0000269134342691A430168CB6823F4B05381
:1030D00023F00C031343CB600268536923F440735D
:1030E00081690B4353610268134B9A4220D0FFF76A
:1030F000BDFF024602EB820202EB820263689B0084
:10310000B2FBF3F20D48A0FB02314909642303FB33
:1031100011231B013233A0FB03035B0903F0F00210
:1031200002EB011203F00F03216813448B6010BD02
:10313000FFF7ACFF0246DDE7003801401F85EB5189
:103140002DE9F84305460F4616469946DDF82080DE
:103150002B681C6837EA04040CBF01240024B44225
:103160002DD1B8F1FF3FF3D0B8F1000F05D0FEF735
:10317000D5F9A0EB09004045EAD92A6802F10C0311
:1031800053E8003F23F4D0730C3242E800310029A9
:10319000F3D12A6802F1140353E8003F23F001033E
:1031A000143242E800310029F3D1202385F8413060
:1031B00085F84230002385F84030032000E00020ED
:1031C000BDE8F88360B310B5044690F8413013B3FE
:1031D000242384F841302268D36823F40053D36059
:1031E0002046FFF763FF2268136923F490431361BD
:1031F0002268536923F02A0353612268D36843F499
:103200000053D36000206064202384F8413084F8A8
:103210004230606310BD80F84030FEF76DF8D7E7AC
:10322000012070472DE9F04182B01E4690F84130F0
:10323000DBB2202B4BD104460D46904600294AD0E4
:103240000AB9012044E000234364212380F841307F
:10325000FEF764F90746A4F82480A4F82680A36842
:10326000B3F5805F02D04FF000080FE02369FBB197
:103270004FF000080AE038F8023B2268C3F3080365
:103280005360E28C92B2013A92B2E284E38C9BB238
:103290008BB100963B46002280212046FFF750FF6D
:1032A000D8B9002DE7D015F8012B23685A60E8E75C
:1032B000A8460025EAE700963B460022402120462A
:1032C000FFF73EFF58B9202384F8413000E0022088
:1032D00002B0BDE8F0810120FAE70320F8E70320FF
:1032E000F6E70000024A0349034800F0C9B800BFEE
:1032F0000C00002045790008200000200C4B41689C
:1033000010B59942044601D004F01CFBA168094B9A
:10331000994202D0204604F015FBE168064B994221
:1033200004D02046BDE8104004F00CBB10BD00BF27
:10333000040800206C080020D40800202DE9F84380
:1033400000250423304C314A3149DFF8C890DFF8BA
:10335000C880324F324E116004F15C0029460822C9
:10336000C4E90335C4E90055C4E90555A56065669F
:1033700000F0A4F904F15800C4E90749C4E9098739
:10338000E66200F06DFA274B2946082204F1C400DA
:103390006367C4E91A55C4E91E552567C4F8CC50C3
:1033A000C4F8805000F08AF904F1680304F1C00009
:1033B000C4F88430C4E92298C4E9247600F050FAB5
:1033C000194B294604F596700822C4F8DC30C4E98C
:1033D0003455C4E93855C4F8D850C4F83451C4F849
:1033E000E85000F06BF904F1D003C4E93D87C4F85C
:1033F000F09004F59470C4F8FC60C4F8EC30BDE8BB
:10340000F84300F02DBA00BF040800203C0900205A
:10341000E53200082D3600085136000891360008C4
:10342000B5360008090001001200020010B504467C
:103430000A4800F019FA636B23B9094B094A1B6863
:10344000626323B1BDE81040044800F00FBAFFF7F3
:1034500075FFBDE81040014800F008BA4C09002093
:103460003C090020FD320008014800F0FDB900BF12
:103470004C090020014800F0F9B900BF4C090020B8
:103480002DE9F8434FF0000980460F461646D6E96D
:103490000154013D10D4A389012B08D9B4F90E3091
:1034A000013304D021464046B84749EA0009013DAE
:1034B0006B1C04F16804EED13668002EE7D1484653
:1034C000BDE8F8830FB400B5074A83B004AB1068B9
:1034D00053F8042B8168019302F0B6FB03B05DF84A
:1034E00004EB04B0704700BF1800002030B505465B
:1034F00089B008460C4600F0BBF90123022223499B
:1035000007936B6B0691029204A9421C04940191EB
:10351000AC68059003926BB3636EB4F90C20D807C6
:1035200001D491051FD5900405D442F4005223F430
:103530000053A2816366990420D42146284601AA3B
:1035400004F01EFBE8B90A25636EDA0702D4A389EA
:103550009B0502D5284609B030BDA06D00F086F964
:10356000284609B030BDA06D00F07EF9B4F90C20FA
:10357000636ED8E72846FFF759FFCDE74FF0FF35D8
:10358000E3E74FF0FF35636EDFE700BFC0B100082F
:10359000024B01461868FFF7A9BF00BF18000020C2
:1035A0000CB410B5204B00291C689CB036DB4FF0E2
:1035B00000034FF402721B934FF6FF7C02900690BB
:1035C000ADF814201FAB16D001391E9A0491079153
:1035D000204602A90193ADF816C000F09FFD421CE1
:1035E00001DA8B2323600022029B1A701CB0BDE815
:1035F000104002B070470491079120461E9A02A91C
:103600000193ADF816C000F089FD431C01DA8B234D
:1036100023601CB0BDE8104002B070478B234FF010
:10362000FF302360F5E700BF1800002010B50C46FE
:10363000B1F90E1000F0BAF8002803DB236D034443
:10364000236510BDA38923F48053A38110BD00BF5F
:103650002DE9F0410C46B1F90C101F46CB0505468B
:1036600016460BD421F48051A1813B4632462846B0
:10367000B4F90E10BDE8F04100F0AEB8B4F90E1088
:103680000223002200F07CF8B4F90C10EAE700BF36
:1036900010B50C46B1F90E1000F072F8B4F90C3008
:1036A000421C0EBF23F4805343F480532065A38152
:1036B00010BD00BFB1F90E1000F050B870B586070C
:1036C00047D0541E002A3ED00346CAB201E0013C56
:1036D00039D303F8012B9D07F9D1032C2CD9CDB296
:1036E00005EB05250F2C1A4605EB054534D9A4F149
:1036F000100C2CF00F0603F1100EB6444FEA1C1C00
:10370000C2E90055C2E9025510327245F8D10CF1F8
:10371000010214F00C0F03EB021204F00F0C13D093
:10372000ACF1040323F003030433134442F8045BB5
:103730009342FBD10CF003042CB1C9B21C4403F832
:10374000011BA342FBD170BD64461346002CF4D18B
:10375000F9E703461446C0E7A446E1E7002238B57E
:10376000064D044608462A60FDF73CFE431C00D087
:1037700038BD2B68002BFBD0236038BD40090020EA
:1037800038B50C46114600228446074D20462A6073
:103790001A466446FDF730FE431C00D038BD2B6846
:1037A000002BFBD0236038BD4009002038B50C4603
:1037B000114600228446074D20462A601A46644678
:1037C000FDF7F2FD431C00D038BD2B68002BFBD069
:1037D000236038BD4009002038B50C461146002250
:1037E0008446074D20462A601A466446FDF7ECFDE4
:1037F000431C00D038BD2B68002BFBD0236038BDA4
:1038000040090020014B1868704700BF18000020D5
:1038100070B50F4B0F4DAB42A3EB050607D000244C
:10382000B61055F8043B01349847A642F9D807F082
:10383000A1FC094D094B5E1BAB424FEAA60606D020
:10384000002455F8043B01349847A642F9D870BDCE
:10385000B4B70008B4B70008B4B70008BCB7000894
:10386000704700BF704700BF704700BF704700BF80
:1038700020F0030110F00300C0F1000051F8043BF8
:1038800000F1040C4FEACC0C6FF000021CBF22FACE
:103890000CF213434FF0010C4CEA0C2C4CEA0C4C8C
:1038A000A3EB0C0222EA030212EACC1204BF51F885
:1038B000043B0430F4D0C2F1000102EA0102B2FA82
:1038C00082F2C2F11F0200EBD2007047024B13B12B
:1038D000024800F005B8704700000000D1800008E1
:1038E000002301461A46184604F096BC2DE9F84319
:1038F00006460820894604F0FFFB0546DFF898805D
:10390000304600F0FFFBD8F808305F6827F0030767
:10391000A7F11104A4EB09042C44B4FBF5F4013C19
:1039200005FB04F4A54208DC0021304604F0BEFB90
:10393000D8F808303B44984205D0304600F0E8FB08
:103940000020BDE8F8833046614204F0AFFB01304F
:103950000FD0124AD8F808303F1B47F001075F60CC
:10396000136830461B1B136000F0D2FB0120BDE83A
:10397000F8830021304604F099FBD8F80820831A18
:103980000F2BDADD43F001035360054B03491B683D
:10399000C01A0860D1E700BF700100205409002060
:1039A0006401002000297CD0F8B50C46064600F0E2
:1039B000A9FB54F8043C764FA4F1080523F001015B
:1039C0006818D7F808C04268844522F0030200F066
:1039D0008380DB07426000EB020C33D454F8084CC0
:1039E000DCF804302D1B2144AC6807F1080C644559
:1039F00003F0010364D0D5F80CE0C4F80CE0CEF875
:103A00000840002B00F0818041F001036B600160F1
:103A1000B1F5007F22D20122CB0849098A4079689A
:103A200001330A437A6057F8331007EBC302083AB0
:103A3000C5E9021247F83350CD603046BDE8F84082
:103A400000F066BBDCF80430DB072BD541F0010346
:103A5000B1F5007F44F8043C0160DCD3B1F5206F80
:103A60004FEA512353D28B0903F1390003F1380295
:103A7000C300F818FB580838984203D161E09B68EE
:103A8000984204D05A6822F003028A42F7D8D868D4
:103A9000C5E9023085603046DD60BDE8F84000F0E1
:103AA00037BB7047114407F1080C836863453FD06A
:103AB000C268DA60936041F001036B606950A7E768
:103AC000002B5FD10A44D0E90213CB60996042F029
:103AD00001036B60AA50B0E70A44D90707D454F831
:103AE000083CED1A1A44D5E90213CB60996042F004
:103AF00001036B60274BBD601B6893429DD8264B2A
:103B000030461968FFF7F2FE97E71144CDE7142B12
:103B100008D9542B1DD80B0B03F16F0003F16E0273
:103B2000C300A6E703F15C0003F15B02C300A0E75A
:103B300041F00103C7E90455C5E902CC6B60695047
:103B40007BE70121921001FA02F279680A437A6058
:103B50009EE7B3F5AA7F06D8CB0B03F1780003F1FB
:103B60007702C30085E740F25452934206D88B0C8B
:103B700003F17D0003F17C02C3007AE74FF47E730A
:103B80007E2276E741F001036B60016055E700BFDC
:103B90007001002068010020840900202DE9F04F09
:103BA00001F10B05162D064683B024D8102900F22A
:103BB000AD8000F0A7FA102518234FF0020CB84F83
:103BC0003B445C68A3F10802944200F01D8130463A
:103BD0006368E268A16823F00303CA60234491602C
:103BE0005A68083442F001025A6000F091FA204607
:103BF00003B0BDE8F08F35F0070500F18780A942DA
:103C000000F2848000F07EFAB5F5FC7FC0F06F8191
:103C10006B0A7FD0042B00F21E81AB0903F1390C33
:103C200003F1380E4FEACC009D4F38444468083801
:103C3000A04207D10DE0002AE16880F2DF808842CF
:103C400007D00C46636823F003035A1B0F2AF2DDEA
:103C5000F446DFF850823C69444500F0BC8063685C
:103C600023F00309A9EB05030F2B00F34581002B7B
:103C7000C7E9048880F22F81B9F5007FD7F804E006
:103C800080F0C98001234FEAD9014FEA591919443C
:103C900003FA09F357F831204EEA030E07EBC1038C
:103CA000083BA260E360C7F804E047F83140D46005
:103CB00001204FEAAC039840704532D810EA0E0F4D
:103CC00007D12CF0030C400010EA0E0F0CF1040C8D
:103CD000F9D007EBCC0AD646E146DEF80C300BE013
:103CE00059681C4621F003014A1B0F2ADB6800F3C8
:103CF000BF80002A80F2E2809E45F1D109F10109DE
:103D000019F0030F0EF1080EE7D11FE10C23336009
:103D100000246CE74FF400704FF0400C4FF03F0E62
:103D200082E7BC68636823F00309A94503D3A9EBC4
:103D300005030F2B52DC5C4B08201B6803F11008B5
:103D400004EB0903009304F0D7F9584A834613683B
:103D5000A844013305D008F1FF388044434203EA08
:103D600008084146304604F0A1F9B0F1FF3F824611
:103D70004E4A00F0DC8004EB0903834200F2D58058
:103D80004B4B0BF1FF31186840448446186040F0FB
:103D9000FB801AEA010F40F0F780D7F808A0C8446A
:103DA00048F00102CAF804205446424B1968814287
:103DB00038BF1860404B1968814238BF186022F044
:103DC0000308A845A8EB050301D30F2B06DC3046FA
:103DD00000F09EF99CE7D7F804E069E7621943F028
:103DE000010345F0010565603046BA600834536050
:103DF00000F08EF9204603B0BDE8F08FA26830468F
:103E0000D16023448A60EBE6DC68A3427FF4DFAE36
:103E10000CF1020C1DE7B9F5206F4FEA59227DD352
:103E2000142A00F2118102F15C03DB005B32F91805
:103E3000FB580839994203D1ECE09B68994204D0C1
:103E40005A6822F003024A45F7D8D968C4E902311A
:103E50008C60DC602CE7142B6CD9542B00F2FD80B5
:103E60002B0B03F16F0C03F16E0E4FEACC00DBE677
:103E7000D4F808C03046661945F001056560CCF8F5
:103E80000C30C3F808C042F00103C7E90466C6E974
:103E900002887360625000F03BF90834A7E600BF67
:103EA00070010020780100208409002064010020B6
:103EB00054090020800900207C09002021444A6820
:103EC000304642F001024A6054F8082FD3609A60ED
:103ED00000F01EF98BE6A144D9F80430304643F0D7
:103EE0000103C9F8043000F013F908347FE64FEA03
:103EF000D50C05F1080362E6621943F0010145F0B3
:103F0000010565603046C7E90422C2E902885160B4
:103F100044F8093000F0FCF8083468E64FEA9912DA
:103F200002F13903DB00383281E7BC4224D0BC689F
:103F3000626844E703F15C0C03F15B0E4FEACC00CE
:103F400072E65AF80839534540F0D8801CF0030F48
:103F50000CF1FF3CF5D17B6823EA00037B60400055
:103F600098423FF6DEAE18B9DBE6400009F10409DD
:103F70001842FAD0CC46ACE6614B0BF1FF31186821
:103F800008EB000CC3F800C01068013070D004EBDF
:103F90000902AAEB020262441A601AF00702CDE994
:103FA000002340D0C2F108029244D04408EA010044
:103FB0005A44121A02EA010B5946304604F076F8C8
:103FC000421C019B71D0A0EB0A0000EB0B081868A3
:103FD00048F001025844BC42C7F808A01860CAF86B
:103FE00004203FF4E1AEB9F10F0F44D94FF0050CB6
:103FF0006168A9F10C0222F0070201F001011143EE
:1040000061600F2A04EB0201C1E901CC55D8DAF84E
:104010000420C9E60120921000FA02F24EEA020ED4
:10402000C7F804E012E70AEB08020A40ABEB020211
:1040300002EA010B5946304604F038F8431C019B54
:10404000C1D1DDF800B0C2E7542A18D84FEA1932BE
:1040500002F16F03DB006E32E9E6B3F5AA7F18D8F0
:10406000EB0B03F1780C03F1770E4FEACC00DBE5A4
:10407000C2F800A091E70123CAF80430A7E6B2F520
:10408000AA7F25D84FEAD93202F17803DB007732D4
:10409000CDE640F25452934225D8AB0C03F17D0C8F
:1040A00003F17C0E4FEACC00BEE5009A4FF0000B06
:1040B000083A9044A8EB0A0889E7304604F1080161
:1040C0000093FFF76FFC009BD7F808A018689EE7E5
:1040D00040F254539A420DD84FEA994202F17D03BF
:1040E000DB007C32A3E64FF47E704FF07F0C4FF084
:1040F0007E0E99E54FF47E737E2298E67B682EE76C
:10410000540900200148FFF7AFBB00BF440900205D
:104110000148FFF7ABBB00BF440900202DE9F04F79
:10412000DDB00C4691460D910F93834603F0BAFF24
:10413000036818461A93FFF79BFB0822189000218A
:104140002CA8FFF7BBFAA389180603D52369002B17
:1041500000F01587002300249E46CDE9313300236B
:1041600033AACDE91634DA4614464D46CDE91BEEA6
:104170003092CDF864E0CDF880E0CDF874E0CDF871
:1041800028E0CDF848E02F466E4BD3F8E46003F00A
:1041900083FF0DF1B00C03463A46504628A9CDF8EE
:1041A00000C0B047002800F09F80C0F29580289B97
:1041B000252B01D00744E7E7B7EB0508064640F09A
:1041C000978000224FF0FF33934609937B787E1C43
:1041D0008DF897200B9299460136A9F120035A2BAE
:1041E00000F2B280DFE813F0F302B000B000EF029B
:1041F000B000B000B000FD02B000B0006A003502AF
:10420000B0002702D202B000CE025B005B005B0070
:104210005B005B005B005B005B005B00B000B0001C
:10422000B000B000B000B000B0002801B000AA019A
:104230003E02280128012801B000B000B000B00003
:104240003A02B000B000A802B000B000B000D00147
:10425000B000BC02B000B0008A06B000B000B000F0
:10426000B000B000B000B000B0002801B000AA015A
:1042700001022801280128012B0201027400B0006C
:104280006402B0005502AF066E027400B000D001A7
:104290007200AC06B000B000B206B000720000229E
:1042A000A9F1300316F8019B02EB820203EB4202F4
:1042B000A9F13003092BF5D90B928EE70F9B53F828
:1042C000042B002A0B920F93C0F2B281337882E75D
:1042D00033784BF0200B7EE7082200212CA8FFF753
:1042E000EDF9012007444FE7B7EB0508064610D06B
:1042F000329BC4E9005843443293319B0133072B6E
:10430000319315DC08340A9B43440A93002E7FF452
:1043100058AF329B002B41F05E810D9B9B8903F0CF
:104320004003002B41F080830A985DB0BDE8F08F18
:1043300050460D9930AA03F0D9FA0028EDD133ACDC
:10434000E1E700BF780500201096B9F1000FE0D03A
:10435000012300228DF80C91069343AD8DF8972030
:104360000C93CDE913220E92099211921BF00203D5
:1043700002D00699023106911BF08408329E05D1C5
:104380000B9906980F1A002F00F39B806AB1012247
:104390006260319A013601320DF19701072A329697
:1043A0003192216000F3D883083463B10223636043
:1043B000319B0236013326AA072B329631932260B5
:1043C00000F3BF830834B8F1800F00F0BF82099B6F
:1043D0000C9A9F1A002F00F3F9821BF4807F40F0A3
:1043E0001E820C9B25601E446360319B3296013314
:1043F000072B319300F33F8308341BF0040F05D0E3
:104400000B9B069A9D1A002D00F3B383DDE90A3257
:1044100006998A42ACBF9B185B180A93002E40F0A5
:104420000883002331930E9B1BB150460E99FFF772
:10443000B9FA33AC109DA6E60F9B1096073323F014
:104440000703F3E802670F9327F000431F931E96BC
:104450004FF0FF32DDE91E01B24BCDE91667FCF7E4
:1044600023FB002840F0F484DDE91E014FF0FF3209
:10447000AC4BFCF7FBFA002840F0EA840022002352
:1044800030463946FCF7E8FA002840F0B2879DF83C
:10449000972000210320A44DA44B2BF0800B0E91FC
:1044A0000690B9F1470FD8BF1D46CDE91311099108
:1044B0000C901191002A3FF459AF069B01330693EB
:1044C00054E7102F319A41F30D82DFF864C2214680
:1044D00030460D9C2E46CDF854C06546219304E02D
:1044E000103F102F01F1080116DD102301321030AA
:1044F000072ACDE931200D604B60F1DD21465046A1
:1045000030AA03F0F3F9002840F09B82DDE9312066
:10451000103F102F33A9E8DC35460C460646219B98
:10452000013215993E44072ACDE9312621606760A2
:1045300000F381869DF89720083427E70F9BB9F197
:10454000430F109603F1040603D01BF0100F00F088
:104550000185082200212EA8FFF7B0F80F9A43AD7D
:104560002EAB29465046126805F006FC034601337F
:104570000C9001F054820C9B23EAE3730693002213
:104580000F968DF89720ECE600230F9F109657F8B2
:10459000045B8DF89730002D00F00085B9F1530FC2
:1045A00000F094861BF01003119340F08F86099B56
:1045B000002BC1F21B801A462846119903F0AAFD70
:1045C0000E90002801F081820E9B11995B1B0C93C9
:1045D00023EAE3734FF07309CDE913119DF8972097
:1045E0000F97099106930E9164E71BF0200F109628
:1045F0003ED00F9B073323F007031846596850F845
:10460000083B0A460F900029C0F2CA830999002985
:10461000C0F2888253EA02012BF0800740F08382C7
:10462000099A002A40F08482BB460C925CAD64E19A
:104630000B9B5B420B9333784BF0040BCBE5337849
:10464000682B03BF73784BF4007B01364BF0400BB3
:10465000C1E52B238DF897303378BCE533784BF0E8
:10466000080BB8E54BF0100B1BF0200F1096C0D1D3
:104670000F9A1BF0100F52F8043B0F9240F0C283C8
:104680001BF0400F00F0BA8343F3C03211461BB257
:10469000B9E71BF0200F109600F0C5830F9B0A9A14
:1046A0001B681A60D2175A600F9B04330F93C1E640
:1046B00033786C2B03BF73784BF0200B01364BF033
:1046C000100B88E547F630030F9AADF8983052F892
:1046D000043B02210F924FF07809002215481096F2
:1046E0004BF0020719900020099D8DF89700002DCE
:1046F000C0F2EC8053EA020027F0800B40F0E58026
:10470000002D40F0D285002940F0538317F00103BB
:104710000C9300F0718330230DF26F158DF86F311B
:10472000EBE000BFFFFFEF7F80B300087CB3000821
:104730005CB500088CB3000810964BF0100B1BF012
:10474000200200F012830F9B073323F00703194662
:104750005A6851F8083B0F9100212BF48067C2E79B
:1047600010964BF0100717F0200200F00B830F9B00
:104770000121073323F0070318465A6850F8083B15
:104780000F90B0E733784BF0800B24E5314611F8F9
:10479000019BB9F12A0F01F02882A9F13003092BFE
:1047A00098BF002201F2A28011F8019B02EB820265
:1047B00003EB4202A9F13003092BF5D942EAE27377
:1047C0000E46099309E533784BF0010B03E59DF89C
:1047D00097203378002A7FF4FEAC20228DF89720B2
:1047E000F9E4504603F05EFC436818461D93FFF75A
:1047F0003FF820900746504603F054FC83681B9313
:10480000002F3FF463AD1B9A3378002A3FF4E3ACEA
:104810001278002A3FF4DFAC4BF4806BDBE4B9F193
:10482000650F40F33781DDE9160100220023FCF714
:1048300009F9002800F0D88101236360319B934A75
:1048400001330136072B32963193226000F3328513
:104850000834279B129A934280F2C982189B1A9AB5
:104860001E44C4E90023319B32960133072B319358
:1048700000F37A830834129B5D1E002D7FF7BDADD7
:10488000102D319B40F3EB80DFF804921027DDF808
:104890003480CDF8549004E00834103D102D40F3DE
:1048A000E08001331036072BC4E90097CDE931369B
:1048B000F2DD4146504630AA03F018F8002840F0D7
:1048C000C080DDE9313633ACE7E75F46012900F00F
:1048D0002A8102295CAD1ED1199803F00F01415CB9
:1048E0001B0943EA0273120905F8011D53EA02018C
:1048F000F3D1BB465CAB5B1B0C93099A0C9900236C
:104900008A42B8BF0A46CDE9133306920E939DF84A
:1049100097201193CEE503F00701DB0843EA4273C9
:10492000D208303153EA0206284605F8011DF2D1BB
:10493000FB07DED53029DCD03023023805F8013CF6
:104940005CAB1B1ABB4605460C93D6E70B9B069A3D
:104950009F1A002F7FF73BAD102F319B41F35B80F7
:104960004B48224631464FF0100806460D9C1590E4
:1049700004E0103F102F02F1080214DD0133103162
:10498000072BC2E90068CDE93131F2DD21465046FE
:1049900030AA02F0ABFF002853D1DDE93131103FDE
:1049A000102F33AAEADC14460E460133159A3E4412
:1049B000072BCDE931362260676000F3C084099B84
:1049C0000C9A08349F1A002F7FF707AD304A102F3A
:1049D000319B159221DD32464FF010082E460D9D79
:1049E00004E0103F102F04F1080414DD01332849BE
:1049F0001032072BC4E90018CDE93132F1DD294628
:104A0000504630AA02F072FFD8B9DDE93132103FCA
:104A1000102F33ACEADC354616460133159A3E4476
:104A2000072BCDE931362260676000F392810834AC
:104A3000D3E450460D9930AA02F058FF00283FF405
:104A4000F0ACD3460E9B002B3FF467AC58460E9952
:104A5000FEF7A8FF0D9B9B8903F0400361E40C4A1D
:104A60001592159A01332E44072B22606560CDE91B
:104A700031367FF7C1AC50460D9930AA02F036FFAF
:104A80000028DED1329E33ACB7E400BFBCB30008CF
:104A90004CB50008129B319F012B06F1010607F16E
:104AA000010704F1080940F310810123072FCDE924
:104AB00031762560636000F38081189B01371A9A74
:104AC0001E44072FC9E90023CDE9317600F3828126
:104AD00009F10809129B0022DDE916015C1E002382
:104AE000FBF7B0FF002840F009810137013526446B
:104AF000072FCDE93176C9F80050C9F8044000F31A
:104B0000F08009F108091C9B01371E44C9F80430E4
:104B1000072F2AABCDE93176C9F80030ABDC09F1BB
:104B200008046AE45F460A2B72F1000180F02583D5
:104B300030338DF86F310123BB460C930DF26F15A6
:104B4000DBE650460D9930AA02F0D0FE00287FF433
:104B500078AF329E33AC36E450460D9930AA1593A7
:104B600002F0C4FE00287FF46CAF329E159B33AC7C
:104B70001BE4102D319B40F33187DFF8CC821027E6
:104B8000DDF83490CDF8548004E0103D102D04F190
:104B9000080415DD01331036072BC4E90087CDE981
:104BA0003136F2DD4946504630AA02F09FFE002819
:104BB0007FF447AFDDE93136103D102D33ACE9DC31
:104BC0000133159A2E44072BC4E90025CDE931366F
:104BD0007FF71CAC50460D9930AA02F087FE0028E2
:104BE0007FF42FAF329E11E42799002940F33383DD
:104BF000DDE911839845A8BF9846B8F1000F0ADD9A
:104C0000319B46440133072BC4E900583296319357
:104C100000F33E860834119FB8F1000FA8BFA7EB40
:104C20000807002F00F3CB81DDF844901BF4806F60
:104C3000A94440F0EA81279B129A9342C0F2718204
:104C40001BF0010F40F06D82129AAF18A7EB090715
:104C5000D51AAF42A8BF2F46002F0BDD319B3E4433
:104C60000133072BC4F8009067603296319300F34C
:104C700085860834002FA8BFED1B002D7FF7BDAB44
:104C8000102D319B7FF7EBAEDFF8C0911027DDF8D8
:104C90003480CDF8549004E00834103D102D7FF797
:104CA000E0AE01331036072BC4E90097CDE9313669
:104CB000F2DD4146504630AA02F018FE00287FF48B
:104CC000C0AEDDE9313633ACE7E71BF0010F7FF40E
:104CD000ECAE0123072FCDE93176256063607FF7C5
:104CE00012AF50460D9930AA02F000FE00287FF462
:104CF000A8AEDDE931760DF1CC0904E7129B012B5A
:104D00007FF701AF112B40F37F87504BCDF824B0D4
:104D100010259B46DDF83480159305E009F108095C
:104D2000103C102C40F33C8301371036072FC9E9A3
:104D300000B5CDE93176F1DD4146504630AA02F0AA
:104D4000D5FD00287FF47DAEDDE931760DF1CC098B
:104D5000E6E750460D9930AA02F0C8FD00287FF41E
:104D600070AE329E33ACFFF738BB0F991BF01000CA
:104D700051F8043B55D11BF040054ED002460F912F
:104D80009BB2E9E40F9917F0100051F8043B41D1B0
:104D900017F040053AD00F91024601219BB2A2E4E0
:104DA0005B425F464FF02D004FF0010162EB420283
:104DB0009AE4099B5CAD0C939FE550460D9930AA8F
:104DC00002F094FD00287FF43CAEDDE931760DF170
:104DD000CC0972E650460D9930AA02F087FD0028F2
:104DE0007FF42FAEDDE931760DF1CC0972E61BF0D0
:104DF000010F3FF402AB31E55CAD7EE51BF4007FB3
:104E000040F04F83DA171146FFF7FDBB17F400722D
:104E100040F052830F91012165E41BF4007240F0D1
:104E200046830F9198E41BF0100F40F094821BF022
:104E3000400F40F0CA831BF4007F00F08C820F9B70
:104E40000A9A1B681A702FE45CB500084CB500087C
:104E5000DDE9160102460B46FBF726FE002840F06E
:104E60001C86B9F1610F00F01F85B9F1410F00F008
:104E70004A85099B013300F0EF8329F02003472B7B
:104E800000F0E1850E90DDE91612002A13464BF47E
:104E90008078C0F2E68400231593DDE91623CDE97E
:104EA0002223A9F14103252B00F20E83DFE813F042
:104EB00018040C030C030C03D803A5040C030C0307
:104EC0000C030C030C030C030C030C030C030C036A
:104ED0000C030C030C030C030C030C030C030C035A
:104EE0000C030C030C030C030C030C030C030C034A
:104EF00018040C030C030C03D803A504A64B10964E
:104F000019931BF0200200F01A810F9B073323F046
:104F1000070319465A6851F8083B0F911BF0010F1F
:104F200009D053EA020106D030218DF899904BF058
:104F3000020B8DF8981002212BF48067FFF7D3BB8A
:104F40005F4610960FE41096FFF7F9BB934B10964F
:104F50001993D6E70F9B43AD1B688DF80C310123E5
:104F600006930C93FFF70BBB50460D9930AA02F045
:104F7000BDFC00287FF465AD329E33AC7BE440215C
:104F80005846FEF70BFE0D9B18601861002800F0D4
:104F90003F8640230D9A5361FFF7DCB8099B2946F1
:104FA000062B28BF06232A4609950E95CDE9131135
:104FB0007B4D06930F970C931191FFF77BBA102F3F
:104FC000319B40F31D86774932464FF010090E465B
:104FD000DDF83480159104E00834103F102F40F3C1
:104FE000EE8101331032072BC4E90069CDE931327B
:104FF000F2DD4146504630AA02F078FC00287FF4EA
:1050000020ADDDE9313233ACE7E7129B2246EB18E5
:105010000993139B4C46002B3146DDF85080CDF8A8
:1050200044B0DDF86C90209EDDF834B0149531DD8D
:10503000B8F1000F40F3338108F1FF3831981D9B20
:10504000013031440728C2E900363291319000F333
:1050500089800832099B99F800001F1B8742A8BF6E
:105060000746002F0CDD3198394401300728C2E98A
:1050700000473291319000F3558199F800000832D1
:10508000002FB4BF0546C51B002D14DC0444139B40
:10509000002BCDDCB8F1000FCEDCCDF86C90A14632
:1050A000149D129B1446EB1899450E4628BF99464D
:1050B000DDF844B0BFE5102D31983A4B23DD0C9458
:1050C00010272C461D4604E0103C102C02F108026B
:1050D00016DD0130334B10310728C2E90037CDE926
:1050E0003101F1DD5946504630AA02F0FFFB00289D
:1050F0007FF4A7ACDDE93101103C102C33AAE8DCC9
:105100002B4625460C9C013029440728CDE9310166
:105110001360556000F3AD8399F800000832044431
:10512000B5E7189A1A991644C4E90012319A3296D2
:105130000132072A319200F3C883083484E50F99BD
:105140001BF0100051F8043B0AD11BF0400503D0BE
:1051500002460F919BB2E1E61BF4007240F09D8184
:105160000F91DBE65946504630AA02F0BFFB0028FB
:105170007FF467AC329933AA6CE707F480610C972F
:105180000E944FF0000E0F46DFF81CB01B9C0DF57F
:10519000B87CCDF8189010E0A0B300088CB30008DC
:1051A000B4B300084CB50008CDCCCCCC0A2B72F1BE
:1051B000000237D343463246AC46991841F100010C
:1051C000ABFB010626F0030000EB96004FF0CC3657
:1051D000091A581A06FB00F662F10009A0FB0B80C1
:1051E0000BFB09660644052008F00109A9FB00092C
:1051F00040184FEA5808303048EAC6780EF1010EE0
:105200000CF1FF350CF8010C7608002FCED0217878
:105210008E45CBD1BEF1FF0FC8D00A2B72F1000230
:1052200080F0DA801B94DDF818900C9F0E9CCDF86E
:1052300048E0FFF75EBB50460D9930AA159302F087
:1052400055FB00287FF4FDAB9DF89720329E159BFF
:1052500033ACFFF79BB801236360319B994A01335C
:105260000136072B32963193226000F3FE8008341A
:10527000002976D1129A0BF0010313433FF4BDA825
:10528000189B1A9A1E44C4E90023319B32960133BD
:10529000072B319300F3D38104F1080272E0139BD2
:1052A00009F1FF39013B1393C8E601295F467FF4FA
:1052B00010AB3DE450460D9930AA02F017FB0028D0
:1052C0007FF4BFAB329E33ACFFF7C3BA0DF1B80821
:1052D0000822002140462995FEF7F0F9099B002B92
:1052E000C0F28C8000260697CDF83090374699465C
:1052F0000FE04346504643A904F03EFD421C06F130
:105300000406384400F0BD83484506DC00F0FE8307
:105310000746299B9A59002AEBD1DDF830900C976B
:10532000069F79E05946504630AA02F0DFFA00287D
:105330007FF487AB99F80000329933AAA0E6504673
:105340000D9930AA02F0D2FA00287FF47AAB329E8F
:1053500033ACFFF73CB80F9B0A9A1B681A60FFF743
:10536000A3B9189B1A9A1E44C4E90023319B3296B4
:105370000133072B319300F3628104F10802002905
:10538000C0F20B83129901330E44072BCDE931365D
:10539000156051603FF76FAB02F10804FFF72DB8BD
:1053A000DDF824B00137159B2644072FCDE931766F
:1053B000C9F80030C9F804407FF7A3AB91E4164662
:1053C0000133159A3E44072BCDE9313622606760E0
:1053D00000F32981083427E4209B1D99ED1A1A4611
:1053E000284602F023FE637803B101344FF0000E2B
:1053F000E0E62D228DF89720FFF74BB800235046AA
:105400001946CDF8008029AA04F0DCFC03460133DC
:105410000C9000F0368329950C9B002B31D0632B28
:1054200000F3F780002343AD0E930822002140468D
:10543000FEF744F90C9E294633465046CDF80080CD
:1054400029AA04F0BFFC864240F0F28300230C9AA4
:10545000CDE9133322EAE271AB549DF897200F9700
:10546000069109931193FFF725B850460D9930AA7C
:1054700002F03CFA00287FF4E4AA2799329E33AC6C
:10548000F6E60C9B9DF89720CDE913330F97069312
:10549000099311930E93FFF70DB82A460F91DBB2D3
:1054A0003CE543F3C01211465BB2FFF7ACB82A46A5
:1054B0000F91DBB2FFF750B90F912A460121DBB201
:1054C000FFF711B9BCB30008099B504601930223B2
:1054D00000932EAB049329AB039327AB0293DDE932
:1054E000222302F079FF1BF0010F054640F00782EE
:1054F0002E9B1B1A1293279B1193119BD91C03DB24
:10550000099A9A4280F28E81119BA9F10209013B0E
:10551000002127935FFA89F2002B8DF8A820B6BFEF
:105520002D222B22119B8DF8A920B8BFC3F10103B6
:10553000092B40F392820DF1BF073A46DFF8D0C243
:105540001E461046ACFB0321C90801EB8102A3EB08
:1055500042023032632E00F8012C0B4600F1FF327C
:10556000EEDC303302F8013C831EBB4280F03A830C
:105570000DF1A90213F8011BBB4202F8011FF9D17A
:105580005CAB181AA0F1AD031C93129B1C9A012B63
:105590001A440C9240F370820C9B189A13440C939B
:1055A0002BF4806343F4807B00230C9A149322EA4B
:1055B000E272069213931193159B002B40F0218108
:1055C0009DF897200993FEF775BF0F9B0A9A1B68F9
:1055D0001A80FFF769B80D9C5046214630AA02F0A8
:1055E00085F9A38903F04003FEF79BBE2846FEF72A
:1055F0003FF9119B20EAE0714FF07309CDE91333B5
:105600009DF897200F970C90099306910E93FEF743
:1056100051BF5046591CFEF7C1FA0546002800F05C
:10562000FF820E9001E750460D9930AA02F05EF914
:1056300000287FF406AA329E33ACFFF7F5BA504635
:105640000D9930AA02F052F900287FF4FAA9DDE999
:105650003136279933AA92E606230E90099312E475
:105660000223099A0132069200932EAB069E049300
:1056700029AB039327AB019602935046DDE9222321
:1056800002F0AAFE29F02007462F054618BF45273D
:10569000064405D12B78302B00F03781279B1E4420
:1056A0000022DDE922010023FBF7CCF9002840F0BD
:1056B00022812E9BB34206D230215A1C2E921970A1
:1056C0002E9B9E42F9D8279A11925B1B472F12936B
:1056D0003FF413AF462F00F02681119B013B17E7E3
:1056E00027AADDE9220102F061FD00224FF07F537D
:1056F000FAF740FF02460B46CDE9062300220023BD
:10570000FBF7A0F908B101232793099B414A591ED1
:10571000414BCDE911B4B9F1610F08BF1A462E46CD
:10572000D346CDF8309013958946DDE9064592467B
:10573000099207E000220023FBF784F9002840F0DB
:10574000D181B9460022354B20462946FAF712FF8F
:105750000D460446FBF7BEF98046FAF7A1FE024665
:105760000B4620462946FAF74DFD1AF80830B9F1E4
:10577000FF3F324604460D4609F1FF3706F8013B6C
:10578000D8D11746264B0022CDE90645DA46DDF88A
:105790003090129CDDF844B0139DFBF77BF9002894
:1057A00000F0128209992E9716F8012CC97B334616
:1057B000914209D1302003F8010C2E9B5A1E2E92E3
:1057C00013F8012C9142F6D0392A0BBF099A013205
:1057D000927AD2B203F8012C33465B1B1293279BBB
:1057E000B9F1610F119303F1FF33279300F0C281E8
:1057F00050224FF0410901218EE6099B06930323B5
:1058000032E72D2200238DF897200993FEF755BE2D
:10581000CDCCCCCCA0B300088CB300080000304045
:105820000000E03FDDE91123934200F3DB801BF031
:10583000010F119B00F04781189A13440C931BF43D
:10584000806F00F07A81119B4FF06709002B7DDC9F
:105850000C9B23EAE37306930023C346CDE913337D
:10586000AAE622912D2103F1004315912393FFF71E
:1058700018BB5946504630AA02F038F800287FF489
:10588000E0A899F80000329933AA0444FFF7FFBB5F
:1058900050460D9930AA02F029F800287FF4D1A8CB
:1058A000329E33ACFFF7B7B978238DF899303023A7
:1058B0008DF89830099B4BF0020B632B00F3B980F5
:1058C000002343AD0E93FFF7DEBA50460D9930AA80
:1058D00002F00CF800287FF4B4A8279B329E33AC6A
:1058E000FFF7B2B9AE491591FEF71ABE00230E4676
:1058F0000993FEF772BC279A33461192E5E6099B9D
:105900004727C618CCE65823CFE70022DDE922015D
:105910000023FBF797F8002800F02781279B1E44FF
:105920001193731B12931199099A0BF0010300292B
:1059300043EA020340F32D81002B40F001814FF038
:105940006609119B0C931BF4806F81D01B990B7817
:10595000FF2B00F061810026119A304604E00130EF
:105960000131FF2B00F0D880934280F2D580D21A0B
:105970004B78002BF3D10B780136F2E750460D99A6
:1059800030AA01F0B3FF00287FF45BA8279D129B8B
:10599000329E33AC5D1BFFF76DB94F4210312CDAEC
:1059A000DFF800821024CDF8548003E00832103F65
:1059B000102F24DD01331036072BC2E90084CDE916
:1059C0003136F3DD50460D9930AA01F08FFF0028E3
:1059D0007FF437A8DDE9313633AAE8E7704A15923B
:1059E000FFF7EEB8129B189A9A18119B0C92002B95
:1059F00040F3AE804FF06709A5E76A49159101337E
:105A000015993E44072BCDE931361160576000F3FC
:105A1000B3800832B6E4634A1592FEF7C6BF0D9A0A
:105A2000938943F0400393814FF0FF330A93FEF7CD
:105A30007BBC5046591CFEF7B1F805460028EED055
:105A40000E90FFF720BA099B002B7FF41BAA099B3D
:105A50000E9301230993FFF716BA002940F08280C4
:105A600030228DF8AA200DF1AB02303302F8013B51
:105A70002AABD31A1C9388E51BF0010F3FF490ADBD
:105A80008AE50022D3460D9B0E92B3F90C3043F009
:105A900040030D9A9381FEF7D5BF179B0320002B7F
:105AA000B8BF2D224FF00003A8BF9DF897201946DC
:105AB0000E933D4D3D4BB8BF8DF897202BF0800BDA
:105AC0000690FEF7EEBC0C93B9E6099B4FF0730904
:105AD000CDE913009DF897200F9706930C9309903A
